:030000000208A84B
:0C08A800787FE4F6D8FD75810A02084B49
:10087E0020204E455645522000454E44494E4720B5
:06088E0053544F525900C3
:06080000D2B17F0A7E0068
:10080600E4FDFCC3ED9FEC9E5015E4FBFA0BBB0028
:0F081600010ABA01F8BBF4F50DBD00010C80E436
:0108250022B0
:0A08B400C2B08FA0120800C2B122EA
:100894007F381208B47F0C1208B47F011208B47FA9
:0408A400800208B412
:100826008B088A09890AAB08AA09A90A1208656011
:1008360013050AE50A7002050914F9120865FF1284
:0508460008BE80E22263
:0A08BE008FA0D2B0120800C2B122D0
:10084B001208947BFF7A08797E1208267FC0120863
:0A085B00B47BFF7A087987020826B3
:10086500BB010689828A83E0225002E722BBFE0291
:09087500E32289828A83E49322C4
:00000001FF
