:03000000020800F3
:0C080000787FE4F6D8FD758109020847F6
:04093D0002080000AC
:10090900E4FDFCD3ED9FEC9E401CE4FBFAD3EB9491
:10091900FBEA6480948440070BBB00010A80EE0D5A
:06092900BD00010C80DDA1
:01092F0022A5
:0300130002088C54
:10088C00C0E0C0D075D000C002C003C004C005C019
:10089C0006C0077F147E001209090509E5097002DC
:1008AC000508640145087008D291C292C293803C3D
:1008BC00E509640245087008C291D292C293802C5B
:1008CC00E509640345087008C291C292D293801C5A
:1008DC00E509640445087008D291D292D293800C39
:1008EC00C291C292C293750800750900D007D00658
:0D08FC00D005D004D003D002D0D0D0E0321F
:0D093000C291C292C29375A884D28A80FE43
:10080C00020930E493A3F8E493A34003F68001F2C9
:10081C0008DFF48029E493A3F85407240CC8C333ED
:10082C00C4540F4420C8834004F456800146F6DFBC
:10083C00E4800B010204081020408090093DE47E06
:10084C00019360BCA3FF543F30E509541FFEE493B1
:10085C00A360010ECF54C025E060A840B8E493A378
:10086C00FAE493A3F8E493A3C8C582C8CAC583CAA3
:10087C00F0A3C8C582C8CAC583CADFE9DEE780BE5B
:0109410000B5
:00000001FF
