:0300000002091DD5
:0C091D00787FE4F6D8FD75810A0208AF6F
:1008D000202057454C434F4D4520544F2000204D7C
:0B08E000592050524F4A45435420005D
:0D080000D2A27F327E0012080DC2A27F142A
:10080D00E4FDFCD3ED9FEC9E401AE4FBFAD3EB9490
:10081D00F6EA940440070BBB00010A80F00DBD0001
:04082D00010C80DF5B
:0108310022A4
:10083200A907E954F0FFE590540F4FF590C2A112B9
:100842000800E9C454F0FFE590540F4FF590D2A28E
:0C0852007F4612080DC2A27F1E02080D96
:1008EB007F021208327F281208327F0C1208327FE7
:0908FB00801208327F010208326C
:10085E00A907E954F0FFE590540F4FF590D2A1127D
:10086E000800E9C454F0FFE590540F4FF590D2A262
:0C087E007F3212080DC2A27F1402080D88
:10088A008B088A09890AAB08AA09A90A120904600D
:10089A0013050AE50A7002050914F9120904FF1280
:0508AA00085E80E2225F
:1008AF001208EB7BFF7A0879D012088A7F327E001C
:1008BF0012080D7FC01208327BFF7A0879DE02081A
:0108CF008A9E
:10090400BB010689828A83E0225002E722BBFE02F1
:09091400E32289828A83E4932224
:00000001FF
